{
  "contractName": "GradeBook",
  "abi": [
    {
      "constant": true,
      "inputs": [
        {
          "name": "",
          "type": "uint256"
        }
      ],
      "name": "evaluations",
      "outputs": [
        {
          "name": "recorderID",
          "type": "uint32"
        },
        {
          "name": "studentID",
          "type": "uint32"
        },
        {
          "name": "activity",
          "type": "uint32"
        },
        {
          "name": "complexity",
          "type": "uint8"
        },
        {
          "name": "effort",
          "type": "uint8"
        },
        {
          "name": "weight",
          "type": "uint8"
        },
        {
          "name": "points",
          "type": "uint8"
        },
        {
          "name": "weightedPoints",
          "type": "uint8"
        }
      ],
      "payable": false,
      "stateMutability": "view",
      "type": "function"
    },
    {
      "inputs": [],
      "payable": false,
      "stateMutability": "nonpayable",
      "type": "constructor"
    },
    {
      "anonymous": false,
      "inputs": [
        {
          "indexed": true,
          "name": "recorderID",
          "type": "uint32"
        },
        {
          "indexed": true,
          "name": "studentID",
          "type": "uint32"
        },
        {
          "indexed": true,
          "name": "activity",
          "type": "uint32"
        },
        {
          "indexed": false,
          "name": "evaluationID",
          "type": "uint64"
        }
      ],
      "name": "EvaluationRecorded",
      "type": "event"
    },
    {
      "constant": true,
      "inputs": [],
      "name": "getStudentCount",
      "outputs": [
        {
          "name": "",
          "type": "uint32"
        }
      ],
      "payable": false,
      "stateMutability": "view",
      "type": "function"
    },
    {
      "constant": true,
      "inputs": [
        {
          "name": "idText",
          "type": "bytes"
        }
      ],
      "name": "getStudentID",
      "outputs": [
        {
          "name": "",
          "type": "uint32"
        }
      ],
      "payable": false,
      "stateMutability": "view",
      "type": "function"
    },
    {
      "constant": true,
      "inputs": [
        {
          "name": "studentID",
          "type": "uint32"
        }
      ],
      "name": "getStudentIDText",
      "outputs": [
        {
          "name": "",
          "type": "bytes"
        }
      ],
      "payable": false,
      "stateMutability": "view",
      "type": "function"
    },
    {
      "constant": false,
      "inputs": [
        {
          "name": "idText",
          "type": "bytes"
        }
      ],
      "name": "makeStudentID",
      "outputs": [
        {
          "name": "",
          "type": "uint32"
        }
      ],
      "payable": false,
      "stateMutability": "nonpayable",
      "type": "function"
    },
    {
      "constant": true,
      "inputs": [
        {
          "name": "recorder",
          "type": "address"
        }
      ],
      "name": "getRecorderID",
      "outputs": [
        {
          "name": "",
          "type": "uint32"
        }
      ],
      "payable": false,
      "stateMutability": "view",
      "type": "function"
    },
    {
      "constant": true,
      "inputs": [
        {
          "name": "recorderID",
          "type": "uint32"
        }
      ],
      "name": "getRecorderAddress",
      "outputs": [
        {
          "name": "",
          "type": "address"
        }
      ],
      "payable": false,
      "stateMutability": "view",
      "type": "function"
    },
    {
      "constant": false,
      "inputs": [
        {
          "name": "studentID",
          "type": "uint32"
        },
        {
          "name": "activity",
          "type": "uint32"
        },
        {
          "name": "complexity",
          "type": "uint8"
        },
        {
          "name": "effort",
          "type": "uint8"
        },
        {
          "name": "weight",
          "type": "uint8"
        },
        {
          "name": "points",
          "type": "uint8"
        },
        {
          "name": "weightedPoints",
          "type": "uint8"
        }
      ],
      "name": "recordEvaluation",
      "outputs": [],
      "payable": false,
      "stateMutability": "nonpayable",
      "type": "function"
    },
    {
      "constant": true,
      "inputs": [],
      "name": "getEvaluationCount",
      "outputs": [
        {
          "name": "",
          "type": "uint64"
        }
      ],
      "payable": false,
      "stateMutability": "view",
      "type": "function"
    },
    {
      "constant": true,
      "inputs": [
        {
          "name": "recorderID",
          "type": "uint32"
        }
      ],
      "name": "getEvaluationCountByRecorderID",
      "outputs": [
        {
          "name": "",
          "type": "uint64"
        }
      ],
      "payable": false,
      "stateMutability": "view",
      "type": "function"
    },
    {
      "constant": true,
      "inputs": [
        {
          "name": "studentID",
          "type": "uint32"
        }
      ],
      "name": "getEvaluationCountByStudentID",
      "outputs": [
        {
          "name": "",
          "type": "uint64"
        }
      ],
      "payable": false,
      "stateMutability": "view",
      "type": "function"
    },
    {
      "constant": true,
      "inputs": [
        {
          "name": "evaluationID",
          "type": "uint64"
        }
      ],
      "name": "getEvaluation",
      "outputs": [
        {
          "name": "",
          "type": "uint64"
        },
        {
          "name": "recorderID",
          "type": "uint32"
        },
        {
          "name": "recorderAddress",
          "type": "address"
        },
        {
          "name": "studentID",
          "type": "uint32"
        },
        {
          "name": "studentIDText",
          "type": "bytes"
        },
        {
          "name": "activity",
          "type": "uint32"
        },
        {
          "name": "complexity",
          "type": "uint8"
        },
        {
          "name": "effort",
          "type": "uint8"
        },
        {
          "name": "weight",
          "type": "uint8"
        },
        {
          "name": "points",
          "type": "uint8"
        },
        {
          "name": "weightedPoints",
          "type": "uint8"
        }
      ],
      "payable": false,
      "stateMutability": "view",
      "type": "function"
    },
    {
      "constant": true,
      "inputs": [
        {
          "name": "recorderID",
          "type": "uint32"
        },
        {
          "name": "index",
          "type": "uint64"
        }
      ],
      "name": "getEvaluationByRecorderID",
      "outputs": [
        {
          "name": "evaluationID",
          "type": "uint64"
        },
        {
          "name": "",
          "type": "uint32"
        },
        {
          "name": "recorderAddress",
          "type": "address"
        },
        {
          "name": "studentID",
          "type": "uint32"
        },
        {
          "name": "studentIDText",
          "type": "bytes"
        },
        {
          "name": "activity",
          "type": "uint32"
        },
        {
          "name": "complexity",
          "type": "uint8"
        },
        {
          "name": "effort",
          "type": "uint8"
        },
        {
          "name": "weight",
          "type": "uint8"
        },
        {
          "name": "points",
          "type": "uint8"
        },
        {
          "name": "weightedPoints",
          "type": "uint8"
        }
      ],
      "payable": false,
      "stateMutability": "view",
      "type": "function"
    },
    {
      "constant": true,
      "inputs": [
        {
          "name": "studentID",
          "type": "uint32"
        },
        {
          "name": "index",
          "type": "uint64"
        }
      ],
      "name": "getEvaluationByStudentID",
      "outputs": [
        {
          "name": "evaluationID",
          "type": "uint64"
        },
        {
          "name": "recorderID",
          "type": "uint32"
        },
        {
          "name": "recorderAddress",
          "type": "address"
        },
        {
          "name": "",
          "type": "uint32"
        },
        {
          "name": "studentIDText",
          "type": "bytes"
        },
        {
          "name": "activity",
          "type": "uint32"
        },
        {
          "name": "complexity",
          "type": "uint8"
        },
        {
          "name": "effort",
          "type": "uint8"
        },
        {
          "name": "weight",
          "type": "uint8"
        },
        {
          "name": "points",
          "type": "uint8"
        },
        {
          "name": "weightedPoints",
          "type": "uint8"
        }
      ],
      "payable": false,
      "stateMutability": "view",
      "type": "function"
    }
  ],
  "bytecode": "0x608060405234801561001057600080fd5b506002805463ffffffff1990811690915560058054909116905561100f806100396000396000f3006080604052600436106100cf5763ffffffff7c01000000000000000000000000000000000000000000000000000000006000350416632997ec8981146100d45780632f5992421461016757806333c63b171461029257806335acbcab146102fe5780633862e6ee146103705780633a95152d146103ab5780633e88d93b146103c957806341e0c407146103f75780638ac3ea2c1461040c5780639366fd5c14610450578063ba8ef2441461047b578063cbf9b6dd1461049d578063cff07771146104e4578063e6a0525f146104f9575b600080fd5b3480156100e057600080fd5b506100f263ffffffff60043516610552565b6040805160208082528351818301528351919283929083019185019080838360005b8381101561012c578181015183820152602001610114565b50505050905090810190601f1680156101595780820380516001836020036101000a031916815260200191505b509250505060405180910390f35b34801561017357600080fd5b5061019263ffffffff6004351667ffffffffffffffff60243516610605565b6040805167ffffffffffffffff8d16815263ffffffff808d1660208084019190915273ffffffffffffffffffffffffffffffffffffffff8d16938301939093528a81166060830152881660a082015260ff80881660c083015286811660e08301528581166101008301528481166101208301528316610140820152610160608082018181528a51918301919091528951919290916101808401918b019080838360005b8381101561024d578181015183820152602001610235565b50505050905090810190601f16801561027a5780820380516001836020036101000a031916815260200191505b509c5050505050505050505050505060405180910390f35b34801561029e57600080fd5b506102aa600435610763565b6040805163ffffffff998a1681529789166020890152959097168686015260ff93841660608701529183166080860152821660a0850152811660c08401529290921660e08201529051908190036101000190f35b34801561030a57600080fd5b506040805160206004803580820135601f810184900484028501840190955284845261035794369492936024939284019190819084018382808284375094975061080f9650505050505050565b6040805163ffffffff9092168252519081900360200190f35b34801561037c57600080fd5b5061038e63ffffffff60043516610911565b6040805167ffffffffffffffff9092168252519081900360200190f35b3480156103b757600080fd5b5061038e63ffffffff60043516610929565b3480156103d557600080fd5b5061035773ffffffffffffffffffffffffffffffffffffffff60043516610941565b34801561040357600080fd5b5061035761096f565b34801561041857600080fd5b5061044e63ffffffff6004358116906024351660ff60443581169060643581169060843581169060a43581169060c4351661097c565b005b34801561045c57600080fd5b5061019263ffffffff6004351667ffffffffffffffff60243516610cab565b34801561048757600080fd5b5061019267ffffffffffffffff60043516610cf4565b3480156104a957600080fd5b506104bb63ffffffff60043516610def565b6040805173ffffffffffffffffffffffffffffffffffffffff9092168252519081900360200190f35b3480156104f057600080fd5b5061038e610e31565b34801561050557600080fd5b506040805160206004803580820135601f8101849004840285018401909552848452610357943694929360249392840191908190840183828082843750949750610e379650505050505050565b6060600180830363ffffffff1681548110151561056b57fe5b600091825260209182902001805460408051601f60026000196101006001871615020190941693909304928301859004850281018501909152818152928301828280156105f95780601f106105ce576101008083540402835291602001916105f9565b820191906000526020600020905b8154815290600101906020018083116105dc57829003601f168201915b50505050509050919050565b60008060008060606000806000806000806000600760008f63ffffffff1663ffffffff1681526020019081526020016000208d67ffffffffffffffff1681548110151561064e57fe5b90600052602060002090600491828204019190066008029054906101000a900467ffffffffffffffff169b5060068c67ffffffffffffffff1681548110151561069357fe5b600091825260209091200180549091508c9063ffffffff166106b481610def565b8354640100000000900463ffffffff166106cd81610552565b8560000160089054906101000a900463ffffffff1686600001600c9054906101000a900460ff1687600001600d9054906101000a900460ff1688600001600e9054906101000a900460ff1689600001600f9054906101000a900460ff168a60000160109054906101000a900460ff169b509b509b509b509b509b509b509b509b509b509b50509295989b509295989b9093969950565b600680548290811061077157fe5b60009182526020909120015463ffffffff808216925064010000000082048116916801000000000000000081049091169060ff6c0100000000000000000000000082048116916d010000000000000000000000000081048216916e01000000000000000000000000000082048116916f0100000000000000000000000000000081048216917001000000000000000000000000000000009091041688565b600061081a82610e37565b63ffffffff161561082a57600080fd5b60018054808201808355600092909252835161086d917fb10e2d527612073b26eecdfd717e6a320cf44b4afac2b0732d9fcbe2b7fa0cf601906020860190610f55565b50506002805463ffffffff198116600163ffffffff9283160182161791829055604051845192909116916000918591819060208401908083835b602083106108c65780518252601f1990920191602091820191016108a7565b51815160209384036101000a60001901801990921691161790529201948552506040519384900301909220805463ffffffff191663ffffffff94851617905550506002541692915050565b63ffffffff1660009081526008602052604090205490565b63ffffffff1660009081526007602052604090205490565b73ffffffffffffffffffffffffffffffffffffffff1660009081526003602052604090205463ffffffff1690565b60025463ffffffff165b90565b6002546000908190899063ffffffff908116908216111561099c57600080fd5b6109a4610ea4565b92506006610100604051908101604052808563ffffffff1681526020018c63ffffffff1681526020018b63ffffffff1681526020018a60ff1681526020018960ff1681526020018860ff1681526020018760ff1681526020018660ff1681525090806001815401808255809150509060018203906000526020600020016000909192909190915060008201518160000160006101000a81548163ffffffff021916908363ffffffff16021790555060208201518160000160046101000a81548163ffffffff021916908363ffffffff16021790555060408201518160000160086101000a81548163ffffffff021916908363ffffffff160217905550606082015181600001600c6101000a81548160ff021916908360ff160217905550608082015181600001600d6101000a81548160ff021916908360ff16021790555060a082015181600001600e6101000a81548160ff021916908360ff16021790555060c082015181600001600f6101000a81548160ff021916908360ff16021790555060e08201518160000160106101000a81548160ff021916908360ff1602179055505050506001600680549050039150600860008463ffffffff1663ffffffff16815260200190815260200160002082908060018154018082558091505090600182039060005260206000209060049182820401919006600802909192909190916101000a81548167ffffffffffffffff021916908367ffffffffffffffff16021790555050600760008b63ffffffff1663ffffffff16815260200190815260200160002082908060018154018082558091505090600182039060005260206000209060049182820401919006600802909192909190916101000a81548167ffffffffffffffff021916908367ffffffffffffffff160217905550508863ffffffff168a63ffffffff168463ffffffff167f889333dec78ca9575f039769b0566073b2492910fcd1147693ddb0f6fa1414bf85604051808267ffffffffffffffff1667ffffffffffffffff16815260200191505060405180910390a450505050505050505050565b60008060008060606000806000806000806000600860008f63ffffffff1663ffffffff1681526020019081526020016000208d67ffffffffffffffff1681548110151561064e57fe5b6000806000806060600080600080600080600060068d67ffffffffffffffff16815481101515610d2057fe5b600091825260209091200180549091508d9063ffffffff16610d4181610def565b8354640100000000900463ffffffff16610d5a81610552565b8560000160089054906101000a900463ffffffff1686600001600c9054906101000a900460ff1687600001600d9054906101000a900460ff1688600001600e9054906101000a900460ff1689600001600f9054906101000a900460ff168a60000160109054906101000a900460ff169b509b509b509b509b509b509b509b509b509b509b505091939597999b90929496989a50565b600060046001830363ffffffff16815481101515610e0957fe5b60009182526020909120015473ffffffffffffffffffffffffffffffffffffffff1692915050565b60065490565b600080826040518082805190602001908083835b60208310610e6a5780518252601f199092019160209182019101610e4b565b51815160209384036101000a600019018019909216911617905292019485525060405193849003019092205463ffffffff16949350505050565b600080610eb033610941565b905063ffffffff81161515610f4d57506004805460018181019092557f8a35acfbc15ff81a39ae7d344fd709f28e8600b4aa8c65c6b64bfe7fe36bd19b01805473ffffffffffffffffffffffffffffffffffffffff1916339081179091556005805463ffffffff808216909401841663ffffffff199182161780835560009384526003602052604090932080549091169284169290921790915554165b8091505b5090565b828054600181600116156101000203166002900490600052602060002090601f016020900481019282601f10610f9657805160ff1916838001178555610fc3565b82800160010185558215610fc3579182015b82811115610fc3578251825591602001919060010190610fa8565b50610f51926109799250905b80821115610f515760008155600101610fcf5600a165627a7a72305820ca94a4c28ef4534995b5959b527675a48c972d608cca08493f85730fb4ea19b80029",
  "source": "pragma solidity ^0.4.21;\n\n\ncontract GradeBook {\n\n  event EvaluationRecorded(uint32 indexed recorderID, uint32 indexed studentID, uint32 indexed activity, uint64 evaluationID); \n\n  // The core evaluation method. The order is important because the optimizer\n  // crams together the smaller fields in storage.\n  struct Evaluation {\n    uint32 recorderID;\n    uint32 studentID;\n    uint32 activity;\n    uint8 complexity;\n    uint8 effort;\n    uint8 weight;\n    uint8 points;\n    uint8 weightedPoints;\n  }\n\n  modifier onlyValidStudentID(uint32 studentID) {\n    require(studentID <= studentCount);\n    _;\n  }\n\n  // student IDs mapped to the external unique identifier\n  // this is normalized to minimize the size of the evaluations array.\n  mapping(bytes => uint32) internal studentByID;\n  bytes[] internal students;\n  uint32 internal studentCount;\n\n  // recorder IDs mapped to the Ethereum address which recorded them\n  // this is normalized to minimize the size of the evaluations array.\n  mapping(address => uint32) internal recorderByAddress;\n  address[] internal recorders;\n  uint32 internal recorderCount;\n\n  // evaluations stored in a public array\n  // accessible through the implicit evaluations() function.\n  // and mapped from student and recorder\n  Evaluation[] public evaluations;\n  mapping(uint32 => uint64[]) internal evaluationsByStudentID;\n  mapping(uint32 => uint64[]) internal evaluationsByRecorderID;\n\n  // Constructor\n  function GradeBook() public {\n    studentCount = 0;\n    recorderCount = 0;\n  }\n\n  // Retrieve the number of student identifiers defined\n  function getStudentCount() public view returns (uint32) {\n    return studentCount;\n  }\n\n  // Retrieve the student ID based on the text-based student identifier\n  // \"zero\" means the student is not recorded in the system.\n  function getStudentID(bytes idText) public view returns (uint32) {\n    return studentByID[idText];\n  }\n\n  // Retrieve the text-based student identifier based on the student ID\n  function getStudentIDText(uint32 studentID) public view returns (bytes) {\n    // studentID is one-based, array is zero-based\n    return students[studentID-1];\n  }\n\n  // Public function to establish an internal student ID which corresponds\n  // to an external student ID (which must be unique).\n  function makeStudentID(bytes idText) public returns (uint32) {\n    // must not already exist\n    require(0 == getStudentID(idText));\n    students.push(idText);\n    studentCount = studentCount + 1;\n    studentByID[idText] = studentCount;\n    return studentCount;\n  }\n\n  // Get the internal recorder ID which corresponds to the Ethereum address\n  // of the recorder.\n  function getRecorderID(address recorder) public view returns (uint32) {\n    return recorderByAddress[recorder];\n  }\n\n  // get the Ethereum address which corresponds to the internal recorder ID\n  function getRecorderAddress(uint32 recorderID) public view returns (address) {\n    // recorderID is one-based, array is zero-based\n    return recorders[recorderID-1];\n  }\n\n  // Record an evaluation. The only restriction is that the student ID must be valid;\n  // otherwise, *anyone* can create an evaluation with any values for any activity,\n  // real or imaginary, legit or bogus.\n  function recordEvaluation(\n    uint32 studentID,\n    uint32 activity,\n    uint8 complexity,\n    uint8 effort,\n    uint8 weight,\n    uint8 points,\n    uint8 weightedPoints) public onlyValidStudentID(studentID)\n    {\n\n    // look up the Recorder ID. If none exists, assign one.\n    uint32 recorderID = makeRecorderID();\n\n    // Store the evaluation in the public evaluations array\n    evaluations.push(Evaluation(\n      recorderID,\n      studentID,\n      activity,\n      complexity,\n      effort,\n      weight,\n      points,\n      weightedPoints));\n\n    // Add the evaluation to the maps so it can be looked up by the student\n    // or by the recoder\n    uint64 evaluationID = uint64(evaluations.length - 1);\n    evaluationsByRecorderID[recorderID].push(evaluationID);\n    evaluationsByStudentID[studentID].push(evaluationID);\n\n    // Send an event for this evaluation\n    emit EvaluationRecorded(recorderID, studentID, activity, evaluationID);\n  }\n\n  // Retrieve the total number of evaluations\n  function getEvaluationCount() public view returns (uint64) {\n    return uint64(evaluations.length);\n  }\n\n  // Retrieve the number of evaluations by the recorder\n  function getEvaluationCountByRecorderID(uint32 recorderID) public view returns (uint64) {\n    return uint64(evaluationsByRecorderID[recorderID].length);\n  }\n\n  // Retrieve the number of evaluations for the student\n  function getEvaluationCountByStudentID(uint32 studentID) public view returns (uint64) {\n    return uint64(evaluationsByStudentID[studentID].length);\n  }\n\n  // Retrieve an evaluation by evaluation ID (a zero-based index)\n  function getEvaluation(uint64 evaluationID) public view\n    returns (uint64, uint32 recorderID, address recorderAddress, uint32 studentID, bytes studentIDText, uint32 activity, uint8 complexity, uint8 effort, uint8 weight, uint8 points, uint8 weightedPoints)\n  {\n    Evaluation storage evalu = evaluations[evaluationID];\n    return(\n      evaluationID,\n      evalu.recorderID,\n      getRecorderAddress(evalu.recorderID),\n      evalu.studentID,\n      getStudentIDText(evalu.studentID),\n      evalu.activity,\n      evalu.complexity,\n      evalu.effort,\n      evalu.weight,\n      evalu.points,\n      evalu.weightedPoints);\n  }\n\n  // Retrieve an evaluation by a recorder at a given zero-based index\n  function getEvaluationByRecorderID(uint32 recorderID, uint64 index) public view\n    returns (uint64 evaluationID, uint32, address recorderAddress, uint32 studentID, bytes studentIDText, uint32 activity, uint8 complexity, uint8 effort, uint8 weight, uint8 points, uint8 weightedPoints)\n  {\n    evaluationID = evaluationsByRecorderID[recorderID][index];\n    Evaluation storage evalu = evaluations[evaluationID];\n    return(\n      evaluationID,\n      evalu.recorderID,\n      getRecorderAddress(evalu.recorderID),\n      evalu.studentID,\n      getStudentIDText(evalu.studentID),\n      evalu.activity,\n      evalu.complexity,\n      evalu.effort,\n      evalu.weight,\n      evalu.points,\n      evalu.weightedPoints);\n  }\n\n  // Retrieve an evaluation for a student at a given zero-based index\n  function getEvaluationByStudentID(uint32 studentID, uint64 index) public view\n    returns (uint64 evaluationID, uint32 recorderID, address recorderAddress, uint32, bytes studentIDText, uint32 activity, uint8 complexity, uint8 effort, uint8 weight, uint8 points, uint8 weightedPoints)\n  {\n    evaluationID = evaluationsByStudentID[studentID][index];\n    Evaluation storage evalu = evaluations[evaluationID];\n    return(\n      evaluationID,\n      evalu.recorderID,\n      getRecorderAddress(evalu.recorderID),\n      evalu.studentID,\n      getStudentIDText(evalu.studentID),\n      evalu.activity,\n      evalu.complexity,\n      evalu.effort,\n      evalu.weight,\n      evalu.points,\n      evalu.weightedPoints);\n  }\n\n  // Internal function for the generation of a recorder ID. The recorder is the sender\n  // of the transaction, is not otherwise modifiable, which is why this is internal only.\n  function makeRecorderID() internal returns (uint32) {\n    uint32 recorderID = getRecorderID(msg.sender);\n    if ( 0 == recorderID ) {\n      recorders.push(msg.sender);\n      recorderCount = recorderCount + 1;\n      recorderByAddress[msg.sender] = recorderCount;\n      recorderID = recorderCount;\n    }\n    return recorderID;\n  }\n}\n",
  "sourcePath": "eb-contracts/contracts/GradeBook.sol",
  "compiler": {
    "name": "solc",
    "version": "0.4.24+commit.e67f0147.Emscripten.clang"
  },
  "schemaVersion": "2.0.1",
  "updatedAt": "2018-07-20T14:22:20.827Z"
}