{
  "contractName": "GradeBook",
  "abi": [
    {
      "constant": true,
      "inputs": [
        {
          "name": "",
          "type": "uint256"
        }
      ],
      "name": "evaluations",
      "outputs": [
        {
          "name": "recorderID",
          "type": "uint32"
        },
        {
          "name": "studentID",
          "type": "uint32"
        },
        {
          "name": "activity",
          "type": "uint32"
        },
        {
          "name": "complexity",
          "type": "uint8"
        },
        {
          "name": "effort",
          "type": "uint8"
        },
        {
          "name": "weight",
          "type": "uint8"
        },
        {
          "name": "points",
          "type": "uint8"
        },
        {
          "name": "weightedPoints",
          "type": "uint8"
        }
      ],
      "payable": false,
      "stateMutability": "view",
      "type": "function"
    },
    {
      "inputs": [],
      "payable": false,
      "stateMutability": "nonpayable",
      "type": "constructor"
    },
    {
      "anonymous": false,
      "inputs": [
        {
          "indexed": true,
          "name": "recorderID",
          "type": "uint32"
        },
        {
          "indexed": true,
          "name": "studentID",
          "type": "uint32"
        },
        {
          "indexed": true,
          "name": "activity",
          "type": "uint32"
        },
        {
          "indexed": false,
          "name": "evaluationID",
          "type": "uint64"
        }
      ],
      "name": "EvaluationRecorded",
      "type": "event"
    },
    {
      "constant": true,
      "inputs": [
        {
          "name": "idText",
          "type": "bytes"
        }
      ],
      "name": "getStudentID",
      "outputs": [
        {
          "name": "",
          "type": "uint32"
        }
      ],
      "payable": false,
      "stateMutability": "view",
      "type": "function"
    },
    {
      "constant": true,
      "inputs": [
        {
          "name": "studentID",
          "type": "uint32"
        }
      ],
      "name": "getStudentIDText",
      "outputs": [
        {
          "name": "",
          "type": "bytes"
        }
      ],
      "payable": false,
      "stateMutability": "view",
      "type": "function"
    },
    {
      "constant": false,
      "inputs": [
        {
          "name": "idText",
          "type": "bytes"
        }
      ],
      "name": "makeStudentID",
      "outputs": [
        {
          "name": "",
          "type": "uint32"
        }
      ],
      "payable": false,
      "stateMutability": "nonpayable",
      "type": "function"
    },
    {
      "constant": true,
      "inputs": [
        {
          "name": "recorder",
          "type": "address"
        }
      ],
      "name": "getRecorderID",
      "outputs": [
        {
          "name": "",
          "type": "uint32"
        }
      ],
      "payable": false,
      "stateMutability": "view",
      "type": "function"
    },
    {
      "constant": true,
      "inputs": [
        {
          "name": "recorderID",
          "type": "uint32"
        }
      ],
      "name": "getRecorderAddress",
      "outputs": [
        {
          "name": "",
          "type": "address"
        }
      ],
      "payable": false,
      "stateMutability": "view",
      "type": "function"
    },
    {
      "constant": false,
      "inputs": [
        {
          "name": "studentID",
          "type": "uint32"
        },
        {
          "name": "activity",
          "type": "uint32"
        },
        {
          "name": "complexity",
          "type": "uint8"
        },
        {
          "name": "effort",
          "type": "uint8"
        },
        {
          "name": "weight",
          "type": "uint8"
        },
        {
          "name": "points",
          "type": "uint8"
        },
        {
          "name": "weightedPoints",
          "type": "uint8"
        }
      ],
      "name": "recordEvaluation",
      "outputs": [],
      "payable": false,
      "stateMutability": "nonpayable",
      "type": "function"
    },
    {
      "constant": true,
      "inputs": [],
      "name": "getEvaluationCount",
      "outputs": [
        {
          "name": "",
          "type": "uint64"
        }
      ],
      "payable": false,
      "stateMutability": "view",
      "type": "function"
    },
    {
      "constant": true,
      "inputs": [
        {
          "name": "recorderID",
          "type": "uint32"
        }
      ],
      "name": "getEvaluationCountByRecorderID",
      "outputs": [
        {
          "name": "",
          "type": "uint64"
        }
      ],
      "payable": false,
      "stateMutability": "view",
      "type": "function"
    },
    {
      "constant": true,
      "inputs": [
        {
          "name": "studentID",
          "type": "uint32"
        }
      ],
      "name": "getEvaluationCountByStudentID",
      "outputs": [
        {
          "name": "",
          "type": "uint64"
        }
      ],
      "payable": false,
      "stateMutability": "view",
      "type": "function"
    },
    {
      "constant": true,
      "inputs": [
        {
          "name": "recorderID",
          "type": "uint32"
        },
        {
          "name": "index",
          "type": "uint64"
        }
      ],
      "name": "getEvaluationByRecorderID",
      "outputs": [
        {
          "name": "studentID",
          "type": "uint32"
        },
        {
          "name": "activity",
          "type": "uint32"
        },
        {
          "name": "complexity",
          "type": "uint8"
        },
        {
          "name": "effort",
          "type": "uint8"
        },
        {
          "name": "weight",
          "type": "uint8"
        },
        {
          "name": "points",
          "type": "uint8"
        },
        {
          "name": "weightedPoints",
          "type": "uint8"
        }
      ],
      "payable": false,
      "stateMutability": "view",
      "type": "function"
    },
    {
      "constant": true,
      "inputs": [
        {
          "name": "studentID",
          "type": "uint32"
        },
        {
          "name": "index",
          "type": "uint64"
        }
      ],
      "name": "getEvaluationByStudentID",
      "outputs": [
        {
          "name": "recorderID",
          "type": "uint32"
        },
        {
          "name": "activity",
          "type": "uint32"
        },
        {
          "name": "complexity",
          "type": "uint8"
        },
        {
          "name": "effort",
          "type": "uint8"
        },
        {
          "name": "weight",
          "type": "uint8"
        },
        {
          "name": "points",
          "type": "uint8"
        },
        {
          "name": "weightedPoints",
          "type": "uint8"
        }
      ],
      "payable": false,
      "stateMutability": "view",
      "type": "function"
    }
  ],
  "bytecode": "0x608060405234801561001057600080fd5b506000600260006101000a81548163ffffffff021916908363ffffffff1602179055506000600560006101000a81548163ffffffff021916908363ffffffff16021790555061130a806100646000396000f3006080604052600436106100ba576000357c0100000000000000000000000000000000000000000000000000000000900463ffffffff1680632997ec89146100bf5780632f5992421461016b57806333c63b171461022657806335acbcab146102da5780633862e6ee146103635780633a95152d146103be5780633e88d93b146104195780638ac3ea2c1461047c5780639366fd5c14610500578063cbf9b6dd146105bb578063cff077711461062e578063e6a0525f1461066d575b600080fd5b3480156100cb57600080fd5b506100f0600480360381019080803563ffffffff1690602001909291905050506106f6565b6040518080602001828103825283818151815260200191508051906020019080838360005b83811015610130578082015181840152602081019050610115565b50505050905090810190601f16801561015d5780820380516001836020036101000a031916815260200191505b509250505060405180910390f35b34801561017757600080fd5b506101b0600480360381019080803563ffffffff169060200190929190803567ffffffffffffffff1690602001909291905050506107b9565b604051808863ffffffff1663ffffffff1681526020018763ffffffff1663ffffffff1681526020018660ff1660ff1681526020018560ff1660ff1681526020018460ff1660ff1681526020018360ff1660ff1681526020018260ff1660ff16815260200197505050505050505060405180910390f35b34801561023257600080fd5b50610251600480360381019080803590602001909291905050506108e8565b604051808963ffffffff1663ffffffff1681526020018863ffffffff1663ffffffff1681526020018763ffffffff1663ffffffff1681526020018660ff1660ff1681526020018560ff1660ff1681526020018460ff1660ff1681526020018360ff1660ff1681526020018260ff1660ff1681526020019850505050505050505060405180910390f35b3480156102e657600080fd5b50610341600480360381019080803590602001908201803590602001908080601f01602080910402602001604051908101604052809392919081815260200183838082843782019150505050505091929192905050506109ac565b604051808263ffffffff1663ffffffff16815260200191505060405180910390f35b34801561036f57600080fd5b50610394600480360381019080803563ffffffff169060200190929190505050610af6565b604051808267ffffffffffffffff1667ffffffffffffffff16815260200191505060405180910390f35b3480156103ca57600080fd5b506103ef600480360381019080803563ffffffff169060200190929190505050610b22565b604051808267ffffffffffffffff1667ffffffffffffffff16815260200191505060405180910390f35b34801561042557600080fd5b5061045a600480360381019080803573ffffffffffffffffffffffffffffffffffffffff169060200190929190505050610b4e565b604051808263ffffffff1663ffffffff16815260200191505060405180910390f35b34801561048857600080fd5b506104fe600480360381019080803563ffffffff169060200190929190803563ffffffff169060200190929190803560ff169060200190929190803560ff169060200190929190803560ff169060200190929190803560ff169060200190929190803560ff169060200190929190505050610ba7565b005b34801561050c57600080fd5b50610545600480360381019080803563ffffffff169060200190929190803567ffffffffffffffff169060200190929190505050610ee7565b604051808863ffffffff1663ffffffff1681526020018763ffffffff1663ffffffff1681526020018660ff1660ff1681526020018560ff1660ff1681526020018460ff1660ff1681526020018360ff1660ff1681526020018260ff1660ff16815260200197505050505050505060405180910390f35b3480156105c757600080fd5b506105ec600480360381019080803563ffffffff169060200190929190505050611016565b604051808273ffffffffffffffffffffffffffffffffffffffff1673ffffffffffffffffffffffffffffffffffffffff16815260200191505060405180910390f35b34801561063a57600080fd5b50610643611062565b604051808267ffffffffffffffff1667ffffffffffffffff16815260200191505060405180910390f35b34801561067957600080fd5b506106d4600480360381019080803590602001908201803590602001908080601f016020809104026020016040519081016040528093929190818152602001838380828437820191505050505050919291929050505061106f565b604051808263ffffffff1663ffffffff16815260200191505060405180910390f35b6060600180830363ffffffff1681548110151561070f57fe5b906000526020600020018054600181600116156101000203166002900480601f0160208091040260200160405190810160405280929190818152602001828054600181600116156101000203166002900480156107ad5780601f10610782576101008083540402835291602001916107ad565b820191906000526020600020905b81548152906001019060200180831161079057829003601f168201915b50505050509050919050565b6000806000806000806000806006600760008c63ffffffff1663ffffffff1681526020019081526020016000208a67ffffffffffffffff168154811015156107fd57fe5b90600052602060002090600491828204019190066008029054906101000a900467ffffffffffffffff1667ffffffffffffffff1681548110151561083d57fe5b9060005260206000200190508060000160009054906101000a900463ffffffff168160000160089054906101000a900463ffffffff1682600001600c9054906101000a900460ff1683600001600d9054906101000a900460ff1684600001600e9054906101000a900460ff1685600001600f9054906101000a900460ff168660000160109054906101000a900460ff1697509750975097509750975097505092959891949750929550565b6006818154811015156108f757fe5b906000526020600020016000915090508060000160009054906101000a900463ffffffff16908060000160049054906101000a900463ffffffff16908060000160089054906101000a900463ffffffff169080600001600c9054906101000a900460ff169080600001600d9054906101000a900460ff169080600001600e9054906101000a900460ff169080600001600f9054906101000a900460ff16908060000160109054906101000a900460ff16905088565b60006109b78261106f565b63ffffffff1660001415156109cb57600080fd5b6001829080600181540180825580915050906001820390600052602060002001600090919290919091509080519060200190610a08929190611239565b50506001600260009054906101000a900463ffffffff1601600260006101000a81548163ffffffff021916908363ffffffff160217905550600260009054906101000a900463ffffffff166000836040518082805190602001908083835b602083101515610a8b5780518252602082019150602081019050602083039250610a66565b6001836020036101000a038019825116818451168082178552505050505050905001915050908152602001604051809103902060006101000a81548163ffffffff021916908363ffffffff160217905550600260009054906101000a900463ffffffff169050919050565b6000600860008363ffffffff1663ffffffff168152602001908152602001600020805490509050919050565b6000600760008363ffffffff1663ffffffff168152602001908152602001600020805490509050919050565b6000600360008373ffffffffffffffffffffffffffffffffffffffff1673ffffffffffffffffffffffffffffffffffffffff16815260200190815260200160002060009054906101000a900463ffffffff169050919050565b60008088600260009054906101000a900463ffffffff1663ffffffff168163ffffffff1611151515610bd857600080fd5b610be06110f3565b92506006610100604051908101604052808563ffffffff1681526020018c63ffffffff1681526020018b63ffffffff1681526020018a60ff1681526020018960ff1681526020018860ff1681526020018760ff1681526020018660ff1681525090806001815401808255809150509060018203906000526020600020016000909192909190915060008201518160000160006101000a81548163ffffffff021916908363ffffffff16021790555060208201518160000160046101000a81548163ffffffff021916908363ffffffff16021790555060408201518160000160086101000a81548163ffffffff021916908363ffffffff160217905550606082015181600001600c6101000a81548160ff021916908360ff160217905550608082015181600001600d6101000a81548160ff021916908360ff16021790555060a082015181600001600e6101000a81548160ff021916908360ff16021790555060c082015181600001600f6101000a81548160ff021916908360ff16021790555060e08201518160000160106101000a81548160ff021916908360ff1602179055505050506001600680549050039150600860008463ffffffff1663ffffffff16815260200190815260200160002082908060018154018082558091505090600182039060005260206000209060049182820401919006600802909192909190916101000a81548167ffffffffffffffff021916908367ffffffffffffffff16021790555050600760008b63ffffffff1663ffffffff16815260200190815260200160002082908060018154018082558091505090600182039060005260206000209060049182820401919006600802909192909190916101000a81548167ffffffffffffffff021916908367ffffffffffffffff160217905550508863ffffffff168a63ffffffff168463ffffffff167f889333dec78ca9575f039769b0566073b2492910fcd1147693ddb0f6fa1414bf85604051808267ffffffffffffffff1667ffffffffffffffff16815260200191505060405180910390a450505050505050505050565b6000806000806000806000806006600860008c63ffffffff1663ffffffff1681526020019081526020016000208a67ffffffffffffffff16815481101515610f2b57fe5b90600052602060002090600491828204019190066008029054906101000a900467ffffffffffffffff1667ffffffffffffffff16815481101515610f6b57fe5b9060005260206000200190508060000160049054906101000a900463ffffffff168160000160089054906101000a900463ffffffff1682600001600c9054906101000a900460ff1683600001600d9054906101000a900460ff1684600001600e9054906101000a900460ff1685600001600f9054906101000a900460ff168660000160109054906101000a900460ff1697509750975097509750975097505092959891949750929550565b600060046001830363ffffffff1681548110151561103057fe5b9060005260206000200160009054906101000a900473ffffffffffffffffffffffffffffffffffffffff169050919050565b6000600680549050905090565b600080826040518082805190602001908083835b6020831015156110a85780518252602082019150602081019050602083039250611083565b6001836020036101000a038019825116818451168082178552505050505050905001915050908152602001604051809103902060009054906101000a900463ffffffff169050919050565b6000806110ff33610b4e565b90508063ffffffff16600014156112325760043390806001815401808255809150509060018203906000526020600020016000909192909190916101000a81548173ffffffffffffffffffffffffffffffffffffffff021916908373ffffffffffffffffffffffffffffffffffffffff160217905550506001600560009054906101000a900463ffffffff1601600560006101000a81548163ffffffff021916908363ffffffff160217905550600560009054906101000a900463ffffffff16600360003373ffffffffffffffffffffffffffffffffffffffff1673ffffffffffffffffffffffffffffffffffffffff16815260200190815260200160002060006101000a81548163ffffffff021916908363ffffffff160217905550600560009054906101000a900463ffffffff1690505b8091505090565b828054600181600116156101000203166002900490600052602060002090601f016020900481019282601f1061127a57805160ff19168380011785556112a8565b828001600101855582156112a8579182015b828111156112a757825182559160200191906001019061128c565b5b5090506112b591906112b9565b5090565b6112db91905b808211156112d75760008160009055506001016112bf565b5090565b905600a165627a7a723058207d63ae95dd09188be46ffb41483fd814b28b2c5a6c56d7a405b410386c7c4df80029",
  "source": "pragma solidity ^0.4.21;\n\n\ncontract GradeBook {\n\n  event EvaluationRecorded(uint32 indexed recorderID, uint32 indexed studentID, uint32 indexed activity, uint64 evaluationID); \n\n  // The core evaluation method. The order is important because the optimizer\n  // crams together the smaller fields in storage.\n  struct Evaluation {\n    uint32 recorderID;\n    uint32 studentID;\n    uint32 activity;\n    uint8 complexity;\n    uint8 effort;\n    uint8 weight;\n    uint8 points;\n    uint8 weightedPoints;\n  }\n\n  modifier onlyValidStudentID(uint32 studentID) {\n    require(studentID <= studentCount);\n    _;\n  }\n\n  // student IDs mapped to the external unique identifier\n  // this is normalized to minimize the size of the evaluations array.\n  mapping(bytes => uint32) internal studentByID;\n  bytes[] internal students;\n  uint32 internal studentCount;\n\n  // recorder IDs mapped to the Ethereum address which recorded them\n  // this is normalized to minimize the size of the evaluations array.\n  mapping(address => uint32) internal recorderByAddress;\n  address[] internal recorders;\n  uint32 internal recorderCount;\n\n  // evaluations stored in a public array\n  // accessible through the implicit evaluations() function.\n  // and mapped from student and recorder\n  Evaluation[] public evaluations;\n  mapping(uint32 => uint64[]) internal evaluationsByStudentID;\n  mapping(uint32 => uint64[]) internal evaluationsByRecorderID;\n\n  // Constructor\n  function GradeBook() public {\n    studentCount = 0;\n    recorderCount = 0;\n  }\n\n  // Retrieve the student ID based on the text-based student identifier\n  // \"zero\" means the student is not recorded in the system.\n  function getStudentID(bytes idText) public view returns (uint32) {\n    return studentByID[idText];\n  }\n\n  // Retrieve the text-based student identifier based on the student ID\n  function getStudentIDText(uint32 studentID) public view returns (bytes) {\n    // studentID is one-based, array is zero-based\n    return students[studentID-1];\n  }\n\n  // Public function to establish an internal student ID which corresponds\n  // to an external student ID (which must be unique).\n  function makeStudentID(bytes idText) public returns (uint32) {\n    // must not already exist\n    require(0 == getStudentID(idText));\n    students.push(idText);\n    studentCount = studentCount + 1;\n    studentByID[idText] = studentCount;\n    return studentCount;\n  }\n\n  // Get the internal recorder ID which corresponds to the Ethereum address\n  // of the recorder.\n  function getRecorderID(address recorder) public view returns (uint32) {\n    return recorderByAddress[recorder];\n  }\n\n  // get the Ethereum address which corresponds to the internal recorder ID\n  function getRecorderAddress(uint32 recorderID) public view returns (address) {\n    // recorderID is one-based, array is zero-based\n    return recorders[recorderID-1];\n  }\n\n  // Record an evaluation. The only restriction is that the student ID must be valid;\n  // otherwise, *anyone* can create an evaluation with any values for any activity,\n  // real or imaginary, legit or bogus.\n  function recordEvaluation(\n    uint32 studentID,\n    uint32 activity,\n    uint8 complexity,\n    uint8 effort,\n    uint8 weight,\n    uint8 points,\n    uint8 weightedPoints) public onlyValidStudentID(studentID)\n    {\n\n    // look up the Recorder ID. If none exists, assign one.\n    uint32 recorderID = makeRecorderID();\n\n    // Store the evaluation in the public evaluations array\n    evaluations.push(Evaluation(\n      recorderID,\n      studentID,\n      activity,\n      complexity,\n      effort,\n      weight,\n      points,\n      weightedPoints));\n\n    // Add the evaluation to the maps so it can be looked up by the student\n    // or by the recoder\n    uint64 evaluationID = uint64(evaluations.length - 1);\n    evaluationsByRecorderID[recorderID].push(evaluationID);\n    evaluationsByStudentID[studentID].push(evaluationID);\n\n    // Send an event for this evaluation\n    emit EvaluationRecorded(recorderID, studentID, activity, evaluationID);\n  }\n\n  // Retrieve the total number of evaluations\n  function getEvaluationCount() public view returns (uint64) {\n    return uint64(evaluations.length);\n  }\n\n  // Retrieve the number of evaluations by the recorder\n  function getEvaluationCountByRecorderID(uint32 recorderID) public view returns (uint64) {\n    return uint64(evaluationsByRecorderID[recorderID].length);\n  }\n\n  // Retrieve the number of evaluations for the student\n  function getEvaluationCountByStudentID(uint32 studentID) public view returns (uint64) {\n    return uint64(evaluationsByStudentID[studentID].length);\n  }\n\n  // Retrieve an evaluation by a recorder at a given zero-based index\n  function getEvaluationByRecorderID(uint32 recorderID, uint64 index) public view\n    returns (uint32 studentID, uint32 activity, uint8 complexity, uint8 effort, uint8 weight, uint8 points, uint8 weightedPoints)\n  {\n    Evaluation storage evalu = evaluations[evaluationsByRecorderID[recorderID][index]];\n    return(evalu.studentID, evalu.activity, evalu.complexity, evalu.effort, evalu.weight, evalu.points, evalu.weightedPoints);\n  }\n\n  // Retrieve an evaluation for a student at a given zero-based index\n  function getEvaluationByStudentID(uint32 studentID, uint64 index) public view\n    returns (uint32 recorderID, uint32 activity, uint8 complexity, uint8 effort, uint8 weight, uint8 points, uint8 weightedPoints)\n  {\n    Evaluation storage evalu = evaluations[evaluationsByStudentID[studentID][index]];\n    return(evalu.recorderID, evalu.activity, evalu.complexity, evalu.effort, evalu.weight, evalu.points, evalu.weightedPoints);\n  }\n\n  // Internal function for the generation of a recorder ID. The recorder is the sender\n  // of the transaction, is not otherwise modifiable, which is why this is internal only.\n  function makeRecorderID() internal returns (uint32) {\n    uint32 recorderID = getRecorderID(msg.sender);\n    if ( 0 == recorderID ) {\n      recorders.push(msg.sender);\n      recorderCount = recorderCount + 1;\n      recorderByAddress[msg.sender] = recorderCount;\n      recorderID = recorderCount;\n    }\n    return recorderID;\n  }\n}\n",
  "sourcePath": "eb-contracts/contracts/GradeBook.sol",
  "compiler": {
    "name": "solc",
    "version": "0.4.24+commit.e67f0147.Emscripten.clang"
  },
  "schemaVersion": "2.0.1",
  "updatedAt": "2018-06-28T13:21:01.100Z"
}